:100000000C94AF000C94CC000C940D040C94CC0018
:100010000C94CC000C94CC000C94BA030C94CC003F
:100020000C94CC000C9404020C94CC000C94EF01C2
:100030000C94CC000C94CC000C94CC000C94CC0010
:100040000C94CC000C94CC000C94CC000C94CC0000
:100050000C94CC00696E6600494E46006E616E00DD
:100060004E414E0000407A10F35A00A0724E18091B
:100070000010A5D4E80000E87648170000E40B540F
:10008000020000CA9A3B000000E1F50500008096DE
:100090009800000040420F000000A0860100000010
:1000A000102700000000E8030000000064000000CA
:1000B00000000A00000000000100000000002C7693
:1000C000D888DC674F0823DFC1DFAE59E1B1B796AE
:1000D000E5E3E453C63AE651997696E8E6C284260B
:1000E000EB898C9B62ED407C6FFCEFBC9C9F40F2E7
:1000F000BAA56FA5F490055A2AF75C936B6CF96763
:100100006DC11BFCE0E40D47FEF520E6B500D0ED27
:10011000902E0300943577050080841E080000208F
:100120004E0A000000C80C333333330F986E12832D
:100130001141EF8D2114893BE65516CFFEE6DB1801
:10014000D1844B381BF77C1D901DA4BBE4242032C6
:1001500084725E228100C9F124ECA1E53D271124BF
:100160001FBECFE5D8E0DEBFCDBF10E0A0E6B0E017
:10017000E4EAF4E102C005900D92AA3AB107D9F77A
:1001800020E0AAEAB0E001C01D92AD3BB207E1F762
:100190000E94CF050C94500A0C940000FC0187B11A
:1001A00017B88081282F237090E4299F9001112493
:1001B00082FBAA27A0F9B0E085E0AA0FBB1F8A95B1
:1001C000E1F72A2B27B986B116B89181892F879537
:1001D0008827879591FB662760F970E025E0660F18
:1001E000771F2A95E1F7862B292F269526952695A8
:1001F0002770822B92FB442740F950E033E0440FF4
:10020000551F3A95E1F7842B86B980B78F7180BF6F
:1002100020B78181982F92959695969593708281BB
:100220008170880F880F892B30E2839FC0011124D1
:10023000822B80BF0895FC0197B1907E97B997B14A
:100240008081869586958695892B87B9369A0895FB
:10025000FC01808182FD0AC024B185B190E0982F15
:10026000882788279370820F911D089584B125B146
:1002700090E035E0959587953A95E1F78670992756
:10028000F8E02F9F90011124820F931F0895CF93C0
:10029000DF93D82FC92F0E941B013699FECF8D2FD7
:1002A0009C2FDF91CF910C942801AC9A87EC90E0C1
:1002B0000197F1F700C00000AC988FE99FE001972B
:1002C000F1F700C000000895CF93DF9330E020E005
:1002D00090E0482F50E063E070E0E1E0F0E0DA0108
:1002E000022E02C0B595A7950A94E2F7A0FF0AC0B6
:1002F000DB01A21BB30BEF0102C0CC0FDD1FAA95DF
:10030000E2F79C2B2F5F3F4F2430310541F7892FB7
:10031000DF91CF910895CF93C82F85B3807F85BBA0
:100320008C2F82958F700E94640195B3982B95BB9A
:100330000E94550185B3807F85BB8C2F8F700E94F2
:10034000640195B3982B95BBCF910C94550195B34F
:10035000907895BB0C948B01CF93C62F0E94A70178
:1003600085B3807885BBAE9A8C2FCF910C948B018E
:100370000F931F93CF93DF93D82F8B01C0E0F80129
:10038000EC0FF11D6081611105C0DF91CF911F91CC
:100390000F9108958C2F8D0F0E94AC01CF5FEFCF8E
:1003A00084B38F6784BB8FE19EE40197F1F700C0AF
:1003B000000083E30E94A70182E30E94A70188E274
:1003C0000E94A7018CE00E94A70181E00E94A70182
:1003D0008FE39CE90197F1F700C0000008958F9327
:1003E0008FB78F939F938091AA009091AB00019655
:1003F0009093AB008093AA0082B3805882BB9F91F8
:100400008F918FBF8F9118958F938FB78F939F93F5
:100410008091AC009091AD0001969093AD008093D7
:10042000AC009F918F918FBF8F911895FC018285B1
:100430008DBD81858CBD08956F927F928F929F9222
:10044000AF92BF92CF92DF92EF92FF920F931F93E2
:10045000CF93DF933C01FC0186818BBD85818ABDF2
:10046000808589BD878188BDC3010E941602F30182
:10047000838182958770833009F495C008F082C02B
:10048000813009F487C0823009F48AC0F3012281E7
:10049000822F8370F0E48F9FC0011124422F469574
:1004A0004695437030E1439FA0011124842B922F85
:1004B0009295969596959370892B24FBAA24A0F883
:1004C000B12C93E0AA0CBB1C9A95E1F7A82A25FB56
:1004D000CC24C0F8D12CCC0CDD1CCC0CDD1CCA28E3
:1004E000CFBCF301838182FBFF27F0F9CF2F30E0EF
:1004F000D32FD695DC2FCC27D795C79583FBEE2439
:10050000E0F8F12C46E0EE0CFF1C4A95E1F7CE290D
:100510008370880F880FC82BCEBD89B7837C89BFB5
:1005200029B7F301938197FB992790F9F0E29F9FF8
:10053000C0011124F3019481092F017010E054E0EF
:10054000000F111F5A95E1F7802B822B91FB882415
:1005500080F8912C63E0880C991C6A95E1F7882A51
:100560009470892A89BEDF91CF911F910F91FF90DE
:10057000EF90DF90CF90BF90AF909F908F907F9043
:100580006F900895843091F0853009F07FCF80E03E
:1005900094E002C081E090E0F3019183808376CF04
:1005A00088E090E0F9CF80E490E0F6CF80E091E041
:1005B000F3CFCF93DF93EC011092AD001092AC001B
:1005C0000E9416029EB58B8182958770892B8EBD05
:1005D000DF91CF9108958EB5887F8EBD08950F93DA
:1005E0001F93CF93DF9300D000D0CDB7DEB74091FB
:1005F000AC005091AD009CB58DB570E060E0BA01E3
:1006000055274427490F511D611D711D90E0982FFA
:100610008827092E000CAA0BBB0B8A019B01080F2F
:10062000191F2A1F3B1FC901B8010F900F900F908F
:100630000F90DF91CF911F910F910895CF92DF928C
:10064000EF92FF920F931F93CF93DF9300D000D0D0
:1006500000D0CDB7DEB7FC01A081B18120E432E447
:100660004FE050E00E94A00669837A838B839C83CD
:100670000E94AF076B017C010E94EF020E94AD0750
:100680008B018E839D8320E034E244EF5AE4C982DB
:10069000DA82EB82FC8269817A818B819C810E9463
:1006A0003B079B01AC0109831A83FE81FB838D818B
:1006B0008C8369817A818B819C810E943B0869834C
:1006C0007A838B839C8369817A818B819C81269636
:1006D0000FB6F894DEBF0FBECDBFDF91CF911F9153
:1006E0000F91FF90EF90DF90CF9008950F931F939D
:1006F000CF93DF9300D000D000D0CDB7DEB7FC01A0
:100700002081318150E040E060E072E18AE790E0D2
:100710000E947E0629833A834B835C83CA01B90118
:100720000E94AD078B018E839D830E94EF020E9481
:10073000AD079B01AC0109831A83FE81FB838D8188
:100740008C8369817A818B819C810E943B076983BC
:100750007A838B839C8369817A818B819C812696A5
:100760000FB6F894DEBF0FBECDBFDF91CF911F91C2
:100770000F9108951F920F920FB60F9211242F938D
:100780003F934F935F936F937F938F939F93AF9319
:10079000BF93EF93FF938091AE008F5F8093AE0085
:1007A00080917800843021F48091AE00823021F075
:1007B00080917800853059F40E94EB028091B50059
:1007C0008F778093B50082EB90E00E941C02FF912E
:1007D000EF91BF91AF919F918F917F916F915F91B9
:1007E0004F913F912F910F900FBE0F901F90189532
:1007F000979A2FE789EA93E0215080409040E1F7F3
:1008000000C0000097982FE789EA93E021508040CC
:100810009040E1F700C0000008951F920F920FB6BC
:100820000F9211242F933F934F935F936F937F9376
:100830008F939F93AF93BF93EF93FF930E94F8031F
:100840002FE788E391E0215080409040E1F700C01D
:100850000000809178008130E9F0843031F180919E
:10086000780090E0019667E070E00E946A0680934D
:100870007800FF91EF91BF91AF919F918F917F9100
:100880006F915F914F913F912F910F900FBE0F90FD
:100890001F9018950E94EB02BA9A80B7877F80BF9D
:1008A000439888B38A7F88BBDACF0E94EB02D7CF08
:1008B000E091780084E0E89FF0011124E05AFF4FB6
:1008C0006081718180E80E94B801E091780084E045
:1008D000E89FF0011124E05AFF4F628173818EE896
:1008E0000C94B801CF93DF9300D000D0CDB7DEB722
:1008F000EFEAF0E080818770806180830E94580475
:100900008FEA90E00E94470147E3489F9001499F8A
:10091000300D1124232F332726952695C901B0E0E9
:10092000A0E089839A83AB83BC83B901CD010E9487
:10093000AD0769837A838B839C8369817A818B81FC
:100940009C810F900F900F900F90DF91CF910895A1
:10095000CF93DF9300D000D0CDB7DEB788B38A7FC6
:1009600088BB8091AF0087708093AF008FEA90E0E2
:100970000E944701892BD1F7BA9880B7886080BF61
:10098000979AC09A82EB90E00E94D902459BFECFD5
:100990000E94EB02979882EB90E00E941E0320E0F9
:1009A00030E948ED55E469837A838B839C836981C0
:1009B0007A818B819C810E943B0769837A838B8338
:1009C0009C8369817A818B819C810F900F900F901D
:1009D0000F90DF91CF910895CF92DF92EF92FF9227
:1009E0000F931F93CF93DF9300D000D000D0CDB7EB
:1009F000DEB7EFEAF0E08081877088618083CF0105
:100A00000E9447019C01990F440B550B29833A839F
:100A10004B835C83CA01B9010E94AF078B018E83AF
:100A20009D8320E030E44CE156E469831A838B8394
:100A30009C8369817A818B819C810E943B086B0138
:100A40007C0198014E815D8160E070E080E894E473
:100A50000E94CE069B01AC01C982DA82EB82FC8245
:100A600069817A818B819C810E943B0769837A83AB
:100A70008B839C8369817A818B819C8126960FB6BA
:100A8000F894DEBF0FBECDBFDF91CF911F910F91C4
:100A9000FF90EF90DF90CF900895CF93DF9300D039
:100AA00000D0CDB7DEB7EFEAF0E0808187708860D4
:100AB0008083CF010E9447019C01990F440B550B85
:100AC00029833A834B835C83CA01B9010E94AF0733
:100AD00020E030E04AEF53E469837A838B839C8380
:100AE00069817A818B819C810E943B0820E030E003
:100AF00040E85AE369837A838B839C8369817A8196
:100B00008B819C810E943B0869837A838B839C83C1
:100B100069817A818B819C810F900F900F900F904B
:100B2000DF91CF9108951092AE008091B50080685A
:100B30008093B50082EB90E00E941C0282EB90E073
:100B40000E94D9028091AE008230E0F382EB90E007
:100B50000C9476031092AE008091B500806880936B
:100B6000B50082EB90E00E941C022FEF89E698E12D
:100B7000215080409040E1F700C00000949A28E2A4
:100B80002A95F1F7949882EB90E00E94D902809127
:100B9000AE008823E1F382EB90E00C941E0300D0BA
:100BA00000D0CDB7DEB784B7806884BF84B78068D3
:100BB00084BF1ABA87E087BB8FEF84BB80E981BB13
:100BC000F8948BB780688BBF85B7886085BF88B184
:100BD000836088B98091B4008F738093B400809152
:100BE000B500807884618093B5008091B600846000
:100BF0008093B60082EB90E00E941C028091AF00CF
:100C0000887F81608093AF008091B000867C816393
:100C10008093B0008FEA90E00E94CE0078940E940A
:100C2000D00180917800833009F444C058F58130B8
:100C3000B9F18230D1F1882371F160E070E080E099
:100C400090E000E028E049815A8169837A838B83B0
:100C50009C8369817A818B819C810E94A808898309
:100C60009A8310E0E981FA81E10FF11D6081611141
:100C70002BC01031B0F660E280EC810F0E94AC0115
:100C80001F5FF7CF8430D9F08530B9F60E94580441
:100C90000E94AA05D6CF0E9458040E947204D1CFA8
:100CA0000E9458040E94A804CCCF0E9458040E94BD
:100CB000EC04C7CF0E9458040E944D05C2CF0E9489
:100CC00058040E949305BDCF80EC810F0E94AC01B7
:100CD0001F5FC8CF97FB072E16F4009407D077FD4F
:100CE00009D00E94AB0607FC05D03EF49095819593
:100CF0009F4F0895709561957F4F0895A1E21A2E38
:100D0000AA1BBB1BFD010DC0AA1FBB1FEE1FFF1FAF
:100D1000A217B307E407F50720F0A21BB30BE40BFF
:100D2000F50B661F771F881F991F1A9469F7609546
:100D30007095809590959B01AC01BD01CF01089500
:100D40000E94BF06A59F900DB49F900DA49F800D9B
:100D5000911D11240895AA1BBB1B51E107C0AA1FB6
:100D6000BB1FA617B70710F0A61BB70B881F991F4C
:100D70005A95A9F780959095BC01CD010895A29F41
:100D8000B001B39FC001A39F700D811D1124911D5F
:100D9000B29F700D811D1124911D08955058BB27DD
:100DA000AA270E94E6060C9401080E94F30738F077
:100DB0000E94FA0720F039F49F3F19F426F40C94AE
:100DC000F0070EF4E095E7FB0C94EA07E92F0E9488
:100DD000120858F3BA17620773078407950720F0C3
:100DE00079F4A6F50C9434080EF4E0950B2EBA2F86
:100DF000A02D0B01B90190010C01CA01A001112421
:100E0000FF27591B99F0593F50F4503E68F11A16CC
:100E1000F040A22F232F342F4427585FF3CF46955D
:100E200037952795A795F0405395C9F77EF41F167F
:100E3000BA0B620B730B840BBAF09150A1F0FF0F49
:100E4000BB1F661F771F881FC2F70EC0BA0F621F35
:100E5000731F841F48F4879577956795B795F79525
:100E60009E3F08F0B0CF9395880F08F09927EE0FBA
:100E70009795879508950E944F070C9401080E944A
:100E8000FA0758F00E94F30740F029F45F3F29F079
:100E90000C94EA0751110C9435080C94F0070E9449
:100EA000120868F39923B1F3552391F3951B550B61
:100EB000BB27AA2762177307840738F09F5F5F4F2D
:100EC000220F331F441FAA1FA9F335D00E2E3AF06C
:100ED000E0E832D091505040E695001CCAF72BD084
:100EE000FE2F29D0660F771F881FBB1F26173707D5
:100EF0004807AB07B0E809F0BB0B802DBF01FF2707
:100F000093585F4F3AF09E3F510578F00C94EA07F2
:100F10000C9435085F3FE4F3983ED4F386957795BB
:100F20006795B795F7959F5FC9F7880F911D9695BF
:100F3000879597F90895E1E0660F771F881FBB1F1B
:100F4000621773078407BA0720F0621B730B840BC8
:100F5000BA0BEE1F88F7E0950895E89409C097FB57
:100F60003EF490958095709561957F4F8F4F9F4F80
:100F70009923A9F0F92F96E9BB279395F6958795C4
:100F800077956795B795F111F8CFFAF4BB0F11F487
:100F900060FF1BC06F5F7F4F8F4F9F4F16C088232E
:100FA00011F096E911C0772321F09EE8872F762F64
:100FB00005C0662371F096E8862F70E060E02AF0A5
:100FC0009A95660F771F881FDAF7880F9695879591
:100FD00097F9089597F99F6780E870E060E00895B9
:100FE0009FEF80EC089500240A9416161706180641
:100FF0000906089500240A9412161306140605061D
:101000000895092E0394000C11F4882352F0BB0FAD
:1010100040F4BF2B11F460FF04C06F5F7F4F8F4F10
:101020009F4F089557FD9058440F551F59F05F3F4B
:1010300071F04795880F97FB991F61F09F3F79F0FA
:1010400087950895121613061406551FF2CF46957C
:10105000F1DF08C0161617061806991FF1CF8695FE
:101060007105610508940895E894BB2766277727E2
:10107000CB0197F908950E944E080C9401080E9434
:10108000F30738F00E94FA0720F0952311F00C9432
:10109000EA070C94F00711240C9435080E941208FA
:1010A00070F3959FC1F3950F50E0551F629FF001BB
:1010B000729FBB27F00DB11D639FAA27F00DB11DD4
:1010C000AA1F649F6627B00DA11D661F829F22275D
:1010D000B00DA11D621F739FB00DA11D621F839FE4
:1010E000A00D611D221F749F3327A00D611D231FBA
:1010F000849F600D211D822F762F6A2F11249F5708
:1011000050409AF0F1F088234AF0EE0FFF1FBB1F0A
:10111000661F771F881F91505040A9F79E3F5105C9
:1011200080F00C94EA070C9435085F3FE4F3983E96
:10113000D4F3869577956795B795F795E7959F5F73
:10114000C1F7FE2B880F911D9695879597F9089505
:10115000A6E0B0E0EEEAF8E00C94230A4D835E834B
:10116000E22EF02E122F27E02E1508F417E000E0F3
:10117000212F4D815E8169837A838B839C83698172
:101180007A818B819C810E943A09982FAD81BE8122
:101190004C91842F887040FF43C0811141C0FD01F4
:1011A0008DE2819364E570E042FD48C0AD81BE816F
:1011B00011968C918193813309F04F7EEE2001F1DD
:1011C000CD80DE80B2E0CB0ED11CBF01212F8EE29C
:1011D000D601382F8C915FEFC51AD50ADB013C93FD
:1011E0006F5F7F4F2150A1F71150212F30E0D901BF
:1011F0001196AE0FBF1F2E5F3F4FE20FF31F8C9370
:1012000025E6F2FC25E4892F208397FF24C09DE288
:101210009183819590E38A302CF19F5F8A50FBCFB8
:10122000ED81FE812BE2F1FC03C0F0FE02C020E262
:101230002193882309F4B6CF6CE570E0F2FE02C07A
:101240006C5F7F4FCF010E94120A8D819E8126968E
:10125000E8E00C943F0A91110AC044FF08C09DE2E7
:10126000918390E39283805D83831482EECF9BE22F
:101270009183D0CF283008F027E03327DA01990F87
:10128000311D87FD916000966105710539F432606A
:101290002E5F3D9330E32A95E1F708959F3F30F0AC
:1012A00080387105610509F03C5F3C5F3D939130EA
:1012B00008F08068911DDF93CF931F930F93FF92E7
:1012C000EF92192F987F9695E92F96959695E90FAD
:1012D000FF27E254FF4F99273327EE24FF24A7016D
:1012E000E70105900894079428F4360FE71EF81ECE
:1012F000491F511D660F771F881F991F0694A1F77C
:101300000590079428F4E70EF81E491F561FC11DCB
:10131000770F881F991F661F0694A1F70590079401
:1013200028F4F80E491F561FC71FD11D880F991F9B
:10133000661F771F0694A1F70590079420F4490FC4
:10134000561FC71FD81F990F661F771F881F069447
:10135000A9F784911095177041F0D695C7955795C8
:101360004795F794E7941A95C1F7E4E6F0E068949E
:101370001590159135916591959105907FE2739542
:10138000E118F10A430B560BC90BD009C0F7E10C69
:10139000F11E431F561FC91FD01D7EF4703311F478
:1013A0008A95E6CFE894015030F0080F0AF4002740
:1013B000021708F4202F2395022F7A3328F079E3BF
:1013C0007D932A95E9F710C07D932A9589F60694B6
:1013D00097956795379517951794E118F10A430B80
:1013E000560BC90BD00998F023957E9173957A33EB
:1013F00008F070E37C932013B8F77E9170617D93C1
:1014000030F0839571E37D9370E32A95E1F7112421
:10141000EF90FF900F911F91CF91DF91992787FD5A
:1014200090950895FB01DC0105900D920020E1F7F5
:1014300008952F923F924F925F926F927F928F9278
:101440009F92AF92BF92CF92DF92EF92FF920F9353
:101450001F93CF93DF93CDB7DEB7CA1BDB0B0FB65D
:10146000F894DEBF0FBECDBF09942A88398848881A
:101470005F846E847D848C849B84AA84B984C884B0
:10148000DF80EE80FD800C811B81AA81B981CE0FA7
:10149000D11D0FB6F894DEBF0FBECDBFED0108958C
:0414A000F894FFCFEE
:1014A40079007E008100860089008E0091009600FC
:1014B40099009E00A100A60005566F6C740020568A
:1014C400004361702000E446004F686D200020F462
:1014D4000054656D7000DF43004672657100487A00
:0A14E400004469737400636D00009A
:00000001FF
